{
  "_format": "hh-sol-artifact-1",
  "contractName": "Simon",
  "sourceName": "contracts/Simon.sol",
  "abi": [
    {
      "inputs": [],
      "stateMutability": "nonpayable",
      "type": "constructor"
    },
    {
      "anonymous": false,
      "inputs": [
        {
          "components": [
            {
              "internalType": "address",
              "name": "id",
              "type": "address"
            },
            {
              "internalType": "uint256",
              "name": "lvl",
              "type": "uint256"
            }
          ],
          "indexed": false,
          "internalType": "struct Simon.User",
          "name": "user",
          "type": "tuple"
        }
      ],
      "name": "UserRegistered",
      "type": "event"
    },
    {
      "inputs": [
        {
          "internalType": "address",
          "name": "user_address",
          "type": "address"
        }
      ],
      "name": "getUser",
      "outputs": [
        {
          "components": [
            {
              "internalType": "address",
              "name": "id",
              "type": "address"
            },
            {
              "internalType": "uint256",
              "name": "lvl",
              "type": "uint256"
            }
          ],
          "internalType": "struct Simon.User",
          "name": "",
          "type": "tuple"
        }
      ],
      "stateMutability": "view",
      "type": "function"
    },
    {
      "inputs": [],
      "name": "getUsers",
      "outputs": [
        {
          "components": [
            {
              "internalType": "address",
              "name": "id",
              "type": "address"
            },
            {
              "internalType": "uint256",
              "name": "lvl",
              "type": "uint256"
            }
          ],
          "internalType": "struct Simon.User[]",
          "name": "",
          "type": "tuple[]"
        }
      ],
      "stateMutability": "view",
      "type": "function"
    },
    {
      "inputs": [
        {
          "internalType": "address",
          "name": "user_address",
          "type": "address"
        }
      ],
      "name": "registerUser",
      "outputs": [],
      "stateMutability": "nonpayable",
      "type": "function"
    },
    {
      "inputs": [
        {
          "internalType": "uint256",
          "name": "",
          "type": "uint256"
        }
      ],
      "name": "usersAccounts",
      "outputs": [
        {
          "internalType": "address",
          "name": "",
          "type": "address"
        }
      ],
      "stateMutability": "view",
      "type": "function"
    }
  ],
  "bytecode": "0x608060405234801561001057600080fd5b5061088b806100206000396000f3fe608060405234801561001057600080fd5b506004361061004b5760003560e01c8062ce8e3e146100505780632199d5cd1461006e5780636f77926b1461008a578063f4e816b4146100ba575b600080fd5b6100586100ea565b604051610065919061070f565b60405180910390f35b610088600480360381019061008391906105a1565b6102f0565b005b6100a4600480360381019061009f91906105a1565b610450565b6040516100b19190610731565b60405180910390f35b6100d460048036038101906100cf91906105ca565b610508565b6040516100e191906106f4565b60405180910390f35b6060600060018054905014156101815760008067ffffffffffffffff81111561013c577f4e487b7100000000000000000000000000000000000000000000000000000000600052604160045260246000fd5b60405190808252806020026020018201604052801561017557816020015b610162610547565b81526020019060019003908161015a5790505b509050809150506102ed565b600060018054905067ffffffffffffffff8111156101c8577f4e487b7100000000000000000000000000000000000000000000000000000000600052604160045260246000fd5b60405190808252806020026020018201604052801561020157816020015b6101ee610547565b8152602001906001900390816101e65790505b50905060005b6001805490508160ff1610156102e757600061028960018360ff1681548110610259577f4e487b7100000000000000000000000000000000000000000000000000000000600052603260045260246000fd5b9060005260206000200160009054906101000a900473ffffffffffffffffffffffffffffffffffffffff16610450565b905080838360ff16815181106102c8577f4e487b7100000000000000000000000000000000000000000000000000000000600052603260045260246000fd5b60200260200101819052505080806102df906107ce565b915050610207565b50809150505b90565b600060405180604001604052808373ffffffffffffffffffffffffffffffffffffffff16815260200160018152509050806000808473ffffffffffffffffffffffffffffffffffffffff1673ffffffffffffffffffffffffffffffffffffffff16815260200190815260200160002060008201518160000160006101000a81548173ffffffffffffffffffffffffffffffffffffffff021916908373ffffffffffffffffffffffffffffffffffffffff160217905550602082015181600101559050506001829080600181540180825580915050600190039060005260206000200160009091909190916101000a81548173ffffffffffffffffffffffffffffffffffffffff021916908373ffffffffffffffffffffffffffffffffffffffff1602179055507ed5f23bc2c3dc523c6ddb7f85e0626e3b421492a8255b7197d6f61f1dd41e7b816040516104449190610731565b60405180910390a15050565b610458610547565b6000808373ffffffffffffffffffffffffffffffffffffffff1673ffffffffffffffffffffffffffffffffffffffff1681526020019081526020016000206040518060400160405290816000820160009054906101000a900473ffffffffffffffffffffffffffffffffffffffff1673ffffffffffffffffffffffffffffffffffffffff1673ffffffffffffffffffffffffffffffffffffffff1681526020016001820154815250509050919050565b6001818154811061051857600080fd5b906000526020600020016000915054906101000a900473ffffffffffffffffffffffffffffffffffffffff1681565b6040518060400160405280600073ffffffffffffffffffffffffffffffffffffffff168152602001600081525090565b60008135905061058681610827565b92915050565b60008135905061059b8161083e565b92915050565b6000602082840312156105b357600080fd5b60006105c184828501610577565b91505092915050565b6000602082840312156105dc57600080fd5b60006105ea8482850161058c565b91505092915050565b60006105ff8383610687565b60408301905092915050565b61061481610785565b82525050565b61062381610785565b82525050565b60006106348261075c565b61063e8185610774565b93506106498361074c565b8060005b8381101561067a57815161066188826105f3565b975061066c83610767565b92505060018101905061064d565b5085935050505092915050565b60408201600082015161069d600085018261060b565b5060208201516106b060208501826106e5565b50505050565b6040820160008201516106cc600085018261060b565b5060208201516106df60208501826106e5565b50505050565b6106ee816107b7565b82525050565b6000602082019050610709600083018461061a565b92915050565b600060208201905081810360008301526107298184610629565b905092915050565b600060408201905061074660008301846106b6565b92915050565b6000819050602082019050919050565b600081519050919050565b6000602082019050919050565b600082825260208201905092915050565b600061079082610797565b9050919050565b600073ffffffffffffffffffffffffffffffffffffffff82169050919050565b6000819050919050565b600060ff82169050919050565b60006107d9826107c1565b915060ff8214156107ed576107ec6107f8565b5b600182019050919050565b7f4e487b7100000000000000000000000000000000000000000000000000000000600052601160045260246000fd5b61083081610785565b811461083b57600080fd5b50565b610847816107b7565b811461085257600080fd5b5056fea2646970667358221220b6f401edfa0d8de2816317a3b311325fd04c319a1e6531b43d319b41c4201ddb64736f6c63430008000033",
  "linkReferences": {},
  "deployedLinkReferences": {}
}